:020000040800F2
:1000000028090020D50000085F1900085D190008C4
:1000100000000000000000000000000000000000E0
:10002000000000000000000000000000F91D0008B2
:10003000000000000000000061190008FD1D00081C
:10004000E7000008E7000008E7000008E7000008F4
:10005000E7000008E7000008E7000008E7000008E4
:10006000E7000008E7000008E7000008E7000008D4
:10007000E7000008E7000008E7000008E7000008C4
:10008000E7000008E7000008E7000008FD1E000880
:10009000E70000080D1F00081D1F0008E70000080A
:1000A000E700000865190008E7000008E7000008FD
:1000B000E7000008E7000008E7000008E700000884
:1000C0000348854600F08EF800480047F9340008E0
:1000D000280900200448804704480047FEE7FEE75F
:1000E000FEE7FEE7FEE7FEE7A51E0008C1000008E8
:1000F0000549064A08685043054A801808604008C8
:100100007047014908607047000000206D4EC641ED
:1001100039300000D2B201E00270401C491EFBD20F
:1001200070470022F6E710B513460A460446194602
:10013000FFF7F0FF204610BD10B54843044604F019
:1001400015FA002805D00021002C02D0641E0155AC
:10015000FAE710BD70B50446002903D00020202224
:10016000012310E0002801D00020C043C046C04653
:100170000DE02546D5408D4205D30D469540641BC4
:100180001D46954040191546521E002DF1DC2146B2
:1001900070BD000070B5002504462E46002911D020
:1001A000002C01DA01254442002901DA01264942E6
:1001B0002046FFF7CFFFB54200D04042002D00D0CF
:1001C000494270BD002C02DA0121C90702E0002C6F
:1001D00000DD03490846C046C046214670BD000008
:1001E000FFFFFF7F1CB509480090094801900546B4
:1001F0000126009C05E0E36807CC33430C3C98479C
:100200001034AC42F7D3FFF75FFF0000A0490008AD
:10021000C0490008B0B5014620314A78022A16D1FB
:10022000026813680E24A343136013680125AB43CF
:100230001360C26B036C2C469C40546000240C700D
:100240004D70416B002900D088472046B0BD042185
:1002500081630120B0BD0000F0B589B00A68002AB2
:1002600000D1B2E00E4607465948874201D005202A
:1002700000E004201721C9067B180A21CB41009316
:10028000042B00D3009038462030019000230793C0
:100290001D46049602970CE01143E1606D1C326824
:1002A0001046E8409B1C0799091D0791002800D1C2
:1002B0008BE001240594AC4022400692EED0716898
:1002C00010200843122811D137461C2007990840F6
:1002D0000F218140EE08B6000393019B9A598A438F
:1002E0003969814011439951039B7968032208467B
:1002F0001040984003929A40029F3E6896430643FE
:100300003E60D043122911D8059A8A40324E3242BB
:100310000CD0BA680240049EF6689E401643BE6048
:100320000A09AA407E68A64316437E60FA68024026
:10033000049EB06898401043F860C800AED572497A
:100340000868059A104308600868104008900C205F
:10035000079908400F2181402A46039CA243089C2C
:100360001E4C14598C430099814021431B48115065
:10037000184C21687068C20312D5069A1143216097
:100380006168820312D4069A91436160A168C20237
:1003900012D4069A9143A160E168800213D57BE7ED
:1003A000069A9143216061688203ECD5069A114355
:1003B0006160A168C202ECD5069A1143A160E168B0
:1003C000800200D568E7914367E709B0F0BDC046F9
:1003D000001000480004014006000600080001402B
:1003E00000690840411E88417047002A02D0182247
:1003F0008150704728228150704700001E480068D5
:100400007047C046B0B5002817D0044600681149AF
:1004100001601149016061684160A1688160FFF776
:10042000EDFF05462068C168002908D0FFF7E6FF08
:10043000401B2728F6D90320B0BD0120B0BDE168DC
:1004400002698A4203D1084901600020B0BD016100
:100450000020B0BDCCCC000055550000006802491A
:10046000016000207047C046AAAA00000248016847
:10047000491C01607047C0462003002010B5EB48BE
:10048000016810220A4302600024204600F004F8AC
:1004900000F014F8204610BDB0B5044600F0CCF9C9
:1004A0007D21C900FFF756FE00F004FE0025E84359
:1004B00021462A4600F034F82846B0BDB0B582B0D7
:1004C0001148016801252943016001682940019113
:1004D0000199290742680A43426040680840009039
:1004E00000980420C04300242146224600F018F85A
:1004F000E8432146224600F013F8E0432146224615
:1005000000F00EF802B0B0BD181002401F210140EB
:1005100001208840014908607047C04600E100E0C2
:10052000002805D4032203469343094A9A1803E09E
:100530000C220240074BD2188007C00E8901C9B2B5
:100540008140FF2383401068984308431060704740
:1005500000E400E014ED00E0F0B587B004468078D8
:10056000C0074C4F4FD00120059001073A1F10687B
:100570000840049006D110680843106010680840D5
:100580000690069802920391434F3868C00512D432
:1005900005980602386830433860FFF72FFF05469C
:1005A0003868304207D1FFF729FF401B6428F7D98C
:1005B000032007B0F0BD032001900002354F3968D9
:1005C000014012D06268024091420ED005980004AA
:1005D00039683A6802433A603A6882433A600846AA
:1005E0002E4A10403860C80745D138682B4908406A
:1005F0006168014339600498002804D1029A1068A8
:100600000399884310602168C8070AD1880710D46D
:10061000880617D488031DD40020490523D407B0C9
:10062000F0BD386903229043A26802433A6188070B
:10063000EED5032000043A698243E0681043386134
:100640008806E7D5386910229043226902433A614F
:100650008803E1D5386980229043A26902433A6158
:1006600000204905DBD539694022914362690A437C
:100670003A6107B0F0BDFFF7C1FE05466C4E386821
:100680008007B2D4FFF7BAFE401BB042F7D90198F9
:1006900007B0F0BD2010024000700040FFFCFFFFDB
:1006A000F0B581B00D46614A1168012739408D428D
:1006B00008D911680126B1432943116011683140FE
:1006C000A94247D101688A0706D5754C2268F023F4
:1006D0009A438368134323600090C90722D153498A
:1006E0000868012630408542009B05D20868B04367
:1006F00008600868C0072DD11878400707D5072083
:100700000002674A11688143D86808431060644852
:1007100004682007810F6348022977D3032960D139
:10072000614873E0009C61685D4A03290ED0121F86
:10073000022906D0012910D1126892033E4609D53C
:100740000FE0126892013E4604D50AE0126BD20314
:100750003E4606D4304601B0F0BD126892073E46D0
:10076000F8D54F4A10680326B04308431060FFF7DE
:1007700045FE074660682E4C01282BD002281DD06C
:1007800003280BD1464800680C2101400C29A6D053
:10079000FFF734FEC01BA042F4D9DBE740480068F5
:1007A0000007800F9BD0FFF729FEC01BA042F5D9A0
:1007B000D0E7FFF723FEC01BA042CBD83848006823
:1007C0000C2101400829F4D189E7FFF717FEC01B6F
:1007D000A042BFD8324800680C2101400429F4D15E
:1007E0007DE70321C90322460A408A4200D12E48F0
:1007F0002B49896A0F220A402C49895CFFF7AAFC21
:100800000146A002000F2A4A105C484324490968A7
:100810000906090F074A515CC8400E4908600026C6
:100820003046FFF739FE304601B0F0BD00200240EF
:1008300088130000D8450008064800687047C04685
:1008400004480068164909684905490F024A515C85
:10085000C840704710000020E845000810B5104956
:100860000C682007820F0F48022A02D3032A01D105
:100870000D4810BD0322D20323461340934200D1FA
:100880000948896A0F220A400849895CFFF762FC1F
:100890000146A002000F064A105C484310BDC04646
:1008A0000410024000127A00006CDC02BD46000811
:1008B000AD460008F0B585B004460078C007FB4E91
:1008C0000CD071680C200140042900D08DE0306804
:1008D000800303D56068002800D112E120788007EA
:1008E00020D570680007800F0ED070680C21014081
:1008F000082900D096E00320C00371680140012060
:10090000C003814200D08DE03068800703D5E068E5
:10091000012800D0F5E03068F82188432169C9003A
:10092000014331602078000724D4207840070394E5
:1009300035D42078C00600D4CCE0706B61694A1DC4
:1009400000D1BDE0012900D025E1042108437063F6
:10095000706B012101437163FFF750FD0546706B19
:10096000800700D5AFE0FFF749FD411B03200229B6
:10097000F5D9BCE1706AE16900297DD00121084305
:100980007062FFF73BFD0546706A8007CDD4FFF724
:1009900035FD401B0228F7D9032005B0F0BD01202A
:1009A00002900107F0690840019006D1F069084300
:1009B000F061F0690840049004980091CE4F3868C7
:1009C000C00545D402980402386820433860FFF718
:1009D00015FD0546386820423AD1FFF70FFD401B50
:1009E0006428F7D9032005B0F0BD716801400829DB
:1009F00008D10320C0037168014001200004814236
:100A000000D164E76268306801214F04002A00D1F8
:100A10000EE1052A00D104E1012A00D01DE10904FC
:100A2000084320E13068E168002937D001210843FC
:100A30003060FFF7E3FC05463068800700D56AE7C1
:100A4000FFF7DCFC401B0228F6D9032005B0F0BDFF
:100A5000039CA168306AA94F002900D1C4E0052990
:100A600000D1ACE0012900D1ADE0029988433062A9
:100A7000306A04218843A8E0012188437062FFF7AF
:100A8000BDFC0546706A800700D44EE7FFF7B6FC50
:100A9000401B0228F6D9032005B0F0BD0121884390
:100AA0003060FFF7ABFC05463068800700D439E7BB
:100AB000FFF7A4FC401B0228F6D9032005B0F0BDC7
:100AC000042188437063706BF8218843A169C900D1
:100AD00001437163207880060AD571680C200140BB
:100AE0000C2938D1706BC00302D5206A012808D1C7
:100AF000646A0022002C07D070680C21014008298C
:100B000005D1012005B0F0BD104605B0F0BD029240
:100B10000120020631680192914331604706FFF7D8
:100B20006DFC0546022C0BD1039C3068384200D185
:100B3000BEE0FFF763FC411B03200229F5D9D6E094
:100B40003068384200D1D4E0FFF758FC411B032045
:100B50000329F5D3CBE071680140082905D10320B2
:100B6000C003716801408142BCD0706B216A0029CA
:100B700000D188E001210F0438437063FFF73EFC89
:100B80000546706B3842B3D1FFF738FC411B032098
:100B90000229F6D9ABE0042108437063706B012190
:100BA00088437063FFF72AFC0546706B800791D578
:100BB000FFF724FC411B03200229F6D997E004210A
:100BC00008433062306A029908433062FFF716FC2E
:100BD0000546306A80071BD4FFF710FC401BB84263
:100BE000F7D9032005B0F0BD029988433062306A1E
:100BF000042188433062FFF701FC0546306A800714
:100C000006D5FFF7FBFB411B0320B942F6D96EE086
:100C10000198002800D08CE6F06900998843F061C3
:100C200087E68A04104330600904306808431AE0FC
:100C30000A04904330608804316881433160FFF7D3
:100C4000DDFB05463068384200D147E6FFF7D6FBAA
:100C5000411B03206429F5D949E00A049043306020
:100C60008904306888433060FFF7C8FB0546306868
:100C7000384200D032E6FFF7C1FB401B6428F6D9AA
:100C8000032005B0F0BD01210F04B8437063FFF7E6
:100C9000B5FB0546706B384200D129E7FFF7AEFB84
:100CA000411B03200229F5D921E0C0460010024073
:100CB000F06A0F218843216B0143F1627B20C0035E
:100CC00071688143E06A0843A16A0143716030683A
:100CD000019908433060FFF791FB044630683842C1
:100CE00007D1FFF78BFB011B03200229F6D905B0C2
:100CF000F0BD029805B0F0BD007000408813000000
:100D000070470000F0B583B001684A68402314467C
:100D10001C40654265418C6841262640761E771E40
:100D2000BE412E4328D00125802717407E427E41B8
:100D3000A7072F4600D53746002F21D02026164082
:100D4000774277410126019636020096603634429A
:100D500000D03D46002D2AD125461D401FD05D25DF
:100D6000455D032D10D100200290C868029088686C
:100D70000290029803B0F0BDC16C884703B0F0BD8B
:100D8000016D884703B0F0BD056E04262E4306664C
:100D900000250295CD6802958D680295029DA506F5
:100DA00007D4009B1C4213D1036E002B1CD103B04F
:100DB000F0BD056E019E35430566002502958D68E0
:100DC00002950D689D430D60029B009B1C42EBD079
:100DD000036E08241C430466002302938B6802936D
:100DE000029B036E002BE2D04B68E024A3434B60D0
:100DF0005D23019CC454920716D04A6803239A438A
:100E00004A60816D002906D0094A4A6304460846B3
:100E1000FFF700FA2046406D0028C8D0044941631E
:100E2000FFF7F8F903B0F0BDFFF76AFF03B0F0BDBC
:100E3000B51B0008F0B583B0002857D005465C35D7
:100E4000002686626978002905D1002129700446B0
:100E500000F050F8204602246C7001680A684023B4
:100E60009A430A60C2686C4B01279A423B4600D302
:100E70003346FE0216430F273F02BE4201D0002632
:100E8000866202951B03066B002E05D107263602EB
:100E9000B24200D801240463012467028669374006
:100EA000019242688568154302692A4345691543E2
:100EB0003D43C2692A43056A1543826A2A430A6090
:100EC000320C042515402B43426A1A43436B1343EB
:100ED000019A13434B60E202CB699343CB6100213B
:100EE0000166084602994C7003B0F0BD012003B0C2
:100EF000F0BDC046B0B586B000681449884201D044
:100F000006B0B0BD01200003EB490A6802430A6045
:100F10000968014000910024059403200490039483
:100F200002200290F020019000980920C00601A93B
:100F3000FFF792F91925284621462246FFF7F0FAD5
:100F40002846FFF7E3FA06B0B0BDC04600300140C6
:100F500070470000F0B582B0044605464435287E4F
:100F6000012803D10226304602B0F0BD6E7E012E6C
:100F70001CD10126002949D0002A47D0002B45D09A
:100F8000687E042801D00520687600262666E3875F
:100F9000A387A16322642B806B80E0681E4988428E
:100FA00016D320482049E164206518E000924120D2
:100FB0008200606802270197904207D1042E05D174
:100FC000A0680028019E009AD3D01FE0019E1DE07A
:100FD00012481349E16420656888022805D301207E
:100FE000000321684A68824304E00120000321686D
:100FF0004A6802434A604868E02202434A6008683F
:10100000400603D40868402202430A600020287684
:10101000304602B0F0BDC046010700001D1B0008AD
:10102000F31900089F1A000875190008F0B581B07F
:101030000920C0060125E9032A46FFF7D6F920203A
:10104000104C205CDE38411E88410F4F78702646D8
:101050002036304602F00EFEB078032804D1690332
:101060000A480022FFF7C1F90948202321463246E9
:10107000FFF770FF02F012FD06494018F86001B05A
:10108000F0BDC046F4000020940000200008004895
:101090004401002010270000001F41424141880008
:1010A0000F490A6804239A43101808607047C04625
:1010B00070470000401E010E01D001207047074913
:1010C000074A5060074803680B40032189075918F5
:1010D000016000209060072111607047FFFFFF0052
:1010E00010E000E020ED00E080B5FFF7E1FF80BDFB
:1010F0007047704710B53C22825C012A01D1022062
:1011000010BD02463C3202235370006843687024CD
:10111000A34343600B6844681C4344608368802495
:10112000A3438360496883680B4383600020107089
:101130000121517010BD000070B5002829D005466E
:101140003C356978002905D100212970044600F05A
:1011500061F820460221697001680E680122940737
:10116000A14205D0264B994202D0264B994219D173
:1011700070239E4383683343234EB14216DD4A4CAD
:10118000A14208DC1E4CA14218D0204CA14215D02F
:1011900033E0012070BD464CA1420FD0434CA14228
:1011A0000CD02AE03346184EB142E8DCA14205D00B
:1011B000144CA14202D03F4CA1421ED10324240270
:1011C000A34304691C4380239C43836923430B602E
:1011D000C368CB6243688B620D4BCB180A24E34192
:1011E000072B06D814469C40E1231C4201D04069DD
:1011F00008634A616A70002070BD1C46E3E7C04680
:10120000002C014000040040FF2B01400040014041
:1012100000D4FEBF10B582B000682349884211DCBB
:1012200001218A07904220D0224A904225D108020B
:1012300021494A6802434A60496801400191019886
:10124000132427E01949884219D01949884214D13A
:101250000120800418490A6802430A6009680140B5
:10126000019101981624022115E0134842680A43AF
:101270004260406808400190019802B010BD012012
:1012800040040D490A6802430A600968014001915F
:1012900001981524032100222046FFF741F920463A
:1012A000FFF734F902B010BDFF4301400044014094
:1012B00000480140002000401810024010B53D21B8
:1012C00002224254026813680124234313604454E9
:1012D000002010BD0068C16801221143C16001688F
:1012E000114301600020704770B53C22825C012AE6
:1012F00001D1022070BD02463C3202235370514C92
:101300002346773B006885681D4085600B684F2B3E
:101310001DDC1F2B29DD202B68D0302B79D0402BF2
:101320007DD1036A046A0125AC4304628469F02517
:10133000AC43CD682D01254385610A24A343496848
:1013400019430162836847211943302365E06F2BFD
:1013500014DD702B4FD001256E03B34264D02903F6
:101360008B425CD18168072357E0002B23D0102BE0
:1013700055D183681721194360234EE0502B1FD0AD
:10138000602B4CD11023DB43046A1C4004620F2401
:1013900024038569A543CC6824032C43056A846132
:1013A000A024A54349680901294301628468672193
:1013B0002143194032E083680721194370232CE050
:1013C000036A046A0125AC4304628469F025AC43D6
:1013D000CD682D01254385610A24A343496819433B
:1013E0000162836857211943202316E0836827216F
:1013F0001943502311E0836823404C688D68C96805
:1014000025430902294319438160836877211943E1
:1014100004E0836837211943402399438160002009
:1014200010700121517070BD836823404C688E6834
:10143000C96826430902314319438160AB038168BF
:101440001943EBE7FF00FFFF7047B0B5044680206B
:10145000C54320680169890717D5C168890714D574
:1014600029467E310161012121778069800703D0FF
:101470002046FFF7E9FF05E0204600F08AF8204605
:1014800000F088F80020207720680169490718D506
:10149000C168490715D529467C31016102212177B0
:1014A00080698005800F03D02046FFF7CDFF05E05F
:1014B000204600F06EF8204600F06CF800202077FF
:1014C00020680169090717D5C168090714D529469D
:1014D0007831016104212177C069800703D020465B
:1014E000FFF7B2FF05E0204600F053F8204600F079
:1014F00051F80020207720680169C90618D5C16815
:10150000C90615D529467031016108212177C069C6
:101510008005800F03D02046FFF796FF05E02046A8
:1015200000F037F8204600F035F8002020772068DA
:101530000169C90709D0C168C90706D029467F31AA
:101540000161204600F028F820680169090607D5E6
:10155000C168090604D505612046FFF7C9FD20686A
:101560000169490609D5C168490606D529464031B1
:101570000161204600F0DEF820680169890607D580
:10158000C168890604D5603505612046FFF7B1FDC5
:10159000B0BD704770470000F0B583B00746604E9D
:1015A0003078002800D1B9E07068874274D1029782
:1015B00030695C4C214601F00BFA01902820335C25
:1015C000590032462432A0CC5552314630310D46B6
:1015D00010350A7D54002F535D1CECB20023012C02
:1015E0001F4600D82F463754501CC2B2012A1A4653
:1015F00000D802460A752420305E2622B25E1518F5
:10160000E80F28184010F06210228A5E1224095F49
:101610008A18D10F009251184F10B764C117484073
:10162000411A01203F29024600D81A466C1C032C9F
:10163000054600D31D4615437D229300002D1A4612
:1016400002D14900384A525AB1680968CA62F9178A
:101650004F40791A3F2901D8002200E00122029F61
:10166000009C641C032C00D31046002802D14800C3
:101670002D490B5AF0680068C362019800280BD00E
:101680002849087A897AC9B201434A424A4101206D
:1016900041032648FEF7A9FEB06887421DD1F16AD2
:1016A00000291AD0012503200029294600DC014623
:1016B00032461432937B5C18044094731C48025DDC
:1016C0002A407069318BFEF790FE012C00D800256E
:1016D000318CF0692A46FEF788FEF06887421DD1FA
:1016E000B16C00291AD0012403200029214600DC16
:1016F000014632463032937B5D18054095730C48A5
:10170000425D2240306BB18EFEF76FFE012D00D896
:101710000024B18FB06B2246FEF767FE03B0F0BD28
:101720001800002034010020F045000800040048A3
:10173000E04600087047B0B5002818D004460546BA
:1017400068356878002804D100202870204600F011
:101750002BF824206870206801680125A9430160E6
:10176000204600F09DFC002803D02846B0BD012093
:10177000B0BD606A002802D0204600F0D7FB0920E7
:10178000C00221684A6882434A6088682A229043DE
:1017900088600868012202430A60204600F030FC9D
:1017A00005462846B0BD000080B586B000680F49E8
:1017B000884201D006B080BD0D4801680122059223
:1017C00092031143016000681040009000200390D4
:1017D0000220029003200490400201900920C006DC
:1017E000009901A9FEF738FD06B080BD0038014020
:1017F00018100240F0B585B017460546044650342F
:10180000607E0222202816D10120002900D18DE01F
:10181000002F00D18AE0012001900603A8680296FB
:10182000B0420E460AD1F00708D02869002805D139
:10183000019805B0F0BD104605B0F0BD207E01282E
:10184000104673D0049300200090E866019820763B
:1018500021206076FEF7D2FD0390678027806088A4
:10186000002849D03C4F049A6088401E6080286858
:10187000C16909061BD4511C0DD0002A2DD0FEF7DA
:10188000BDFD049A0399411A2868914225D8C1697F
:101890000906F4D50BE0C169090608D4C169090637
:1018A00005D4C169090602D4C1690906F3D5A9683E
:1018B000029B994202D12969002906D0317801851D
:1018C000761C61880029CFD118E031883940018524
:1018D000B61C61880029C7D110E00D2149010268BA
:1018E0008A4302608168019A91438160202060767A
:1018F000A0760320009918E02868049AC169490677
:101900000FD4002A1FD0511C15D1C169490608D433
:10191000C169490605D4C169490602D4C1694906AD
:10192000F3D52020607600990846217605B0F0BDF9
:10193000C0694006F5D4FEF761FD0399411A286895
:10194000049A9142F4D9019B0D21490102688A430E
:10195000026081689943C8E7FF010000FEE7704715
:101960007047000080B50248FFF7CCF980BDC04643
:1019700044010020B0B5026C0168CB681380462397
:10198000C45A641EC452921C0264C25A002A00D077
:10199000B0BD4A6840239A434A60C18F0029F7D1FD
:1019A0000446FEF72BFD0246206841682025A94326
:1019B00041606421204600F006F9002802D0216E23
:1019C0002943216621464631226E002A05D0012294
:1019D000CA752046FFF794F9B0BDCA7D0123CB75C7
:1019E0002046042A02D1FFF7B3FAB0BDFFF71EFB71
:1019F000B0BD70B54621425A016805464635022AF7
:101A000013D3026CCB6813802B889B1E2B80921CF7
:101A100002642A88012A04D1012212034B6813436D
:101A20004B60298800290BD070BD097B026C531CC8
:101A3000036411702988491E298029880029F3D15F
:101A400001684A6860239A434A60C18F0029EBD13C
:101A50000446FEF7D3FC0246206841682026B143C5
:101A600041606421204600F0AEF8002802D0216ECB
:101A700031432166216E002905D00121E9752046F8
:101A8000FFF73EF970BDE97D0122EA752046042981
:101A900002D1FFF75DFA70BDFFF7C8FA70BD70B5EF
:101AA0000168826B1388CB60C38F5B1EC387921C57
:101AB0008263C28F002A00D070BD054646354A6851
:101AC00080239A434A6029880029F5D10446FEF70D
:101AD00095FC0246206841682026B143416064219C
:101AE000204600F070F8002802D0216E31432166B4
:101AF000216E002905D00121E9752046FFF700F984
:101B000070BDE97D0122EA752046042902D1FFF764
:101B10001FFA70BDFFF78AFA70BD000070B5826BC6
:101B2000C38F2349022B05D303681488DC60921C01
:101B3000826305E0531C8363036812781A73491C9F
:101B4000C28F5118C187C18F002900D070BD0546D2
:101B5000463501684A6880239A434A6029880029EB
:101B6000F4D10446FEF74AFC02462068416820266C
:101B7000B14341606421204600F025F8002802D0DE
:101B8000216E31432166216E002905D00121E975BE
:101B90002046FFF7B5F870BDE97D0122EA752046C1
:101BA000042902D1FFF7D4F970BDFFF73FFA70BDE9
:101BB000FEFF000080B5406A462100224252C287E3
:101BC000FFF79EF880BDF0B583B002920F4606463F
:101BD00003203568A968C904890F1DD0002F48D09B
:101BE0000190C402791C0FD1A968214215D0A968BF
:101BF000214212D0A96821420FD0A9682142F3D115
:101C00000BE0A968214208D0FEF7F8FB0299411ABF
:101C10003568B942F5D32BE00190A96809060CD4C8
:101C20000320410230463A46029B00F050F800285B
:101C3000019846D1002003B0F0BD002F18D0791CC8
:101C40000FD1A9680906EBD5A9680906E8D5A968E6
:101C50000906E5D5A9680906F3D4E1E7A8680006F6
:101C6000DED5FEF7CBFB0299411A3568B942F5D3B0
:101C700001986968E0229143696041218900726896
:101C80008A420BD1B1680122D303994202D0920259
:101C9000914203D1296840229143296001214903DF
:101CA000B26A8A4207D1012149032A688A432A601D
:101CB0002A680A432A6032465C32002111700121F1
:101CC0005170326E20211143316603B0F0BDF0B582
:101CD00083B001930C4605460068816800232142C9
:101CE0002AD0174603225602B44228D1791C1CD0B0
:101CF0000092002F6BD1007B02A9087002983EE091
:101D0000017B02AA117002998168314214D0017BD3
:101D100002AA11700299816831420DD0017B02AA9A
:101D2000117002998168314206D0017B02AA1170BC
:101D3000029981683142E3D1184603B0F0BD0092A8
:101D4000002F1CD01E46791C13D1324681682142D7
:101D500008D08168214205D08168214202D0816883
:101D60002142F3D1104603B0F0BD286880682042BC
:101D70003FD0FEF743FB0199401AB842F5D32868DB
:101D80004168E02291434160412189006A688A42AA
:101D90000BD1A9680122D303994202D09202914249
:101DA00003D1016840229143016001214A03AB6ADB
:101DB0005C35934205D10368934303600368134382
:101DC0000360002028706970009803B0F0BD1C46C5
:101DD000007B02A908700298FEF710FB0199401AD7
:101DE000B842CCD2286881683142F1D1204603B094
:101DF000F0BD304603B0F0BD70470000B0B5FEF74F
:101E000035FBFFF771F9094D286800280CD001F067
:101E100045FE2968884207D901208103044800242F
:101E20002246FEF7E2FA2C60B0BDC04690000020CA
:101E300000080048B0B598B00120139028210B91FC
:101E40000024149412900BA8FEF734FD002800D053
:101E5000FEE70A940994032008900720079007A83A
:101E600001252946FEF71CFC002800D0FEE702955C
:101E700000956846FEF770FB002800D0FEE7FEF7ED
:101E8000DBFC7D21C900FEF765F9FFF713F904209B
:101E9000FFF702F9E04321462246FEF741FB18B066
:101EA000B0BD00001148026801210A430260426887
:101EB0000F4B1340436002680E4B134003608A04CB
:101EC0000368934303603F221204436893434360D3
:101ED000C26A0F239A43C262026B074B134003632B
:101EE000426B8A43426300218160704700100240C8
:101EF0000CB8FF08FFFFF6FE2CFEFCFF80B5024881
:101F0000FFF7A3FA80BDC046A801002080B50248B3
:101F1000FFF79BFA80BDC046E801002080B502486B
:101F2000FFF793FA80BDC04628020020B0B5416A91
:101F3000CA070CD18A0714D44A071CD40A0724D430
:101F4000CA062CD48A0634D44A063CD44CE001227A
:101F5000520403685C689443826A22435A608A0789
:101F6000EAD50122120403685C689443C26A2243E2
:101F70005A604A07E2D50122920403685C689443E0
:101F8000026B22435A600A07DAD50122D2030368A2
:101F90005C689443426B22435A60CA06D2D5012240
:101FA000120303689C689443826B22439A608A06FA
:101FB000CAD50122520303689C689443C26B224332
:101FC0009A604A0610D501221305026854689C43A2
:101FD000056C2C4354609D4206D103235B05546875
:101FE0009C43436C23435360090607D50121C90470
:101FF000026853688B43806C18435060B0BD00008A
:10200000F0B581B004460026C66607466837FEF77D
:10201000F5F9054621686F48814203D06E48814238
:10202000304635D10096086800070ED5C869800291
:102030000BD401204605FEF7E1F9401B2168174A41
:1020400090421AD8C8693042F5D008684007009E0F
:1020500030461DD5C8694002304619D40120860596
:10206000FEF7CCF9401B21680C4A904205D8C8699C
:102070003042F5D0009E30460AE00D2040010A684B
:1020800082430A6088680122904388600320009E92
:10209000202179703E70B97001B0F0BDFFFFFF01E3
:1020A00070B504460568286847490140A068226960
:1020B0000243606910430843E16908432860032034
:1020C00000036A688243E06810436860A069226A7E
:1020D00002430B200002AB6883431343AB60002232
:1020E0003A48854206DC3C4885422AD03B48854236
:1020F00012D010E0364885420ED0364885420AD1CB
:10210000374800688007000F364A12580120C30381
:10211000994205D020E008220120C30399421BD137
:1021200001200021324D042A3ED8304B7A441279E6
:102130005200974402321D393000FEF781FB430004
:102140002BE027480068800B0C220240254882586B
:102150000120C3039942E3D0042A33D87A44127988
:10216000520097440213092F2700FEF769FB05E090
:10217000FEF774FB430010E0FEF770FB61684A084D
:102180001018FDF7E7FF81B2256819E0616848087B
:10219000154A801811E02B46103361684808C018B2
:1021A000FDF7D8FF014600200D400907490F2943DC
:1021B000256806E061684808C018FDF7CBFF81B2CA
:1021C0000020E96070BDC046F369FFEFFF4B00409F
:1021D000004C0040003801400044004000480040EE
:1021E00030100240D046000800127A000024F400AB
:1021F000F0FF0000B0B50C4DEB80EA60286129814A
:102200000A4828800124104619462246FEF7EDF8B8
:10221000298928692246FEF7E8F800226A61A103AD
:10222000F648FEF7E2F8B0BD7C0000200203000093
:10223000B0B582B05E4D2C46243401A96A462046D2
:1022400000F098FC002801D002B0B0BD01A80078D1
:1022500041085C291FD85749085C392807D0FF2856
:1022600019D06946097800290ED080210DE0694611
:10227000097801290FD1A9794A1CAA7101211140BD
:102280006A4611700029F0D14B494006400C0818ED
:1022900080B200F0B1FA204600F07CFC01A8007882
:1022A00001462A39452900D936E0C04679440979E2
:1022B00049008F44224D4D4D4D4D4D4D4D4D4D4D91
:1022C000224D454D594D4D4D4D4D4D4D4D4D4D4D65
:1022D0004D4D4D4D4D4D4D4D4D4D4D4D4D4D4D4D2E
:1022E0004D4D4D4D4D4D4D4D4D4D4D334D4D454D40
:1022F0004D4D4D4D4D4D4D4D4D616846007841421F
:1023000041418802012189022C4A12888A4310180F
:102310002A49088002B0B0BD1D2819D16946097844
:102320004A424A41D102254A1388254C1C40611873
:1023300011802A28E1D0382802D03628DDD083E762
:102340001E48008869460978002921D01D491AE0F5
:102350007D38012800D977E7184800886946097850
:1023600000291ED01A490EE01448008869460978F1
:10237000002910D0144906E0104800886946097801
:1023800000290BD0114908400C49088002B0B0BDAB
:102390000121490207E00121490304E001218903E9
:1023A00001E00121090208430449088002B0B0BDE0
:1023B00094000020E44600088080FFFF1400002005
:1023C000FFF70000FFFD0000FFDF0000FFBF00007F
:1023D000FFFE0000F0B591B0054600260680F74CE0
:1023E00020692189FDF7FCFF0521012800D002E1C9
:1023F0000F960E95109101F051FB06462069218938
:10240000FDF7EEFF074620692189FDF7E9FFEC4D56
:10241000B8420BD101F042FB801BA84200D9E9E091
:1024200021892069FDF7DCFFB842F3D001F036FBCB
:10243000064620692189FDF7D3FF074620692189D7
:10244000FDF7CEFFB8420BD101F028FB801BA8425C
:1024500000D9CFE021892069FDF7C2FFB842F3D04F
:1024600001F01CFB064620692189FDF7B9FF0746EC
:1024700020692189FDF7B4FFB8420BD101F00EFBB2
:10248000801BA84200D9B5E021892069FDF7A8FF8B
:10249000B842F3D001229603D6483146FDF7A5FF96
:1024A0000F98606100F0ACF8052800D1A2E0074663
:1024B00000F0A6F8052800D19CE00F9000F0A0F8ED
:1024C000052800D196E00D9000F09AF8052800D17B
:1024D00090E00C9000F094F8052800D18AE00B9071
:1024E00000F08EF8052800D184E00A9000F088F80A
:1024F00005287FD0099000F083F805287AD008904D
:1025000000F07EF8052875D0079000F079F80528CE
:1025100070D0059000F074F8069005286AD000F09D
:102520006FF80490052865D000F06AF8039005283C
:1025300060D000F065F8029005285BD000F060F8EC
:102540000190052856D000F05BF8009005281099FE
:1025500051D00022CA4831461092FDF746FF0F982D
:102560008003F90301430D98400308430C990903C4
:1025700001430B98C00208430A9989020143099854
:10258000400208430899090201430798C2010A431F
:1025900005988001104301994906029A92060A4360
:1025A0000399C9061143049A12070A430699490779
:1025B0001143090E0143009801430F9101F06EFA97
:1025C000064620692189FDF70BFF0746206921890E
:1025D000FDF706FFB8420AD101F060FA801BA8425D
:1025E00005D821892069FDF7FBFEB842F4D00E988A
:1025F0000F9901801099084611B0F0BD00080048FD
:10260000F0B583B0DD4E31893069FDF7E9FE002871
:1026100002D0052003B0F0BD01F040FA0446306955
:102620003189FDF7DDFE054630693189FDF7D8FEB9
:1026300000210091C9430191A8420DD101F02EFA69
:10264000071B5F48874206D831893069FDF7C8FE0D
:10265000A842F3D000E0019F01F020FA0290306917
:102660003189FDF7BDFE054630693189FDF7B8FEB9
:10267000A8420CD101F012FA0299441A504884423F
:102680000DD831893069FDF7ABFEA842F2D0BC42CB
:1026900008DC009A0520611C014608D108E0019C75
:1026A000BC42F6DD01220520611C014600D0114626
:1026B0007A1C01D103B0F0BD084603B0F0BDC0469E
:1026C000F0B587B0044600200690207000F072FB41
:1026D000054601286FD101F0E1F90646A74D2869AA
:1026E0002989FDF77DFE074628692989FDF778FECF
:1026F000B84214D1059401F0D1F9841B0525304866
:10270000844258D89D4801890069FDF769FEB842A6
:10271000F1D02820C0435B3C8442059C4BD301226E
:1027200091035748FDF761FEFFF76AFF052505286D
:1027300041D00746FFF764FF05283CD00646FFF767
:102740005FFF052837D00590FFF75AFF052832D0E4
:102750000490FFF755FF05282DD00390FFF750FF99
:10276000052828D00290FFF74BFF052823D00190C1
:10277000FFF746FF05281ED000907D2025468400E7
:1027800001F08CF900197D494861B001F90101435C
:10279000059842010A430498010111430398C200BD
:1027A0000A430298800010430199490001430098B0
:1027B00001432970069D284607B0F0BD7C0000202B
:1027C000A8610000B0B56D4D09482880E868E98827
:1027D00001242246FDF709FE298928692246FDF7D2
:1027E00004FE00226A61A1032548FDF7FEFDB0BD8D
:1027F0000203000000080048F0B581B0074601253B
:10280000A9031F4800912A46FDF7EFFD5B4CA57018
:1028100000266661C82000F0B3F82189206932469D
:10282000FDF7E3FD222000F0ABF8218920692A465C
:10283000FDF7DBFD402000F0A3F8380A00F058F85F
:102840000625062812D0F8B200F052F806280DD05E
:10285000218920693246FDF7C8FD402000F090F83C
:10286000218920690122FDF7C0FD3546A670044884
:1028700000993246FDF7B9FD284601B0F0BDC046CB
:1028800000080048F0B581B0064601F007F9009055
:102890003A4C20692189FDF7A3FD0546206921896D
:1028A000FDF79EFDA8420DD1002E0ED001F0F6F8E6
:1028B0000099471AB74216D821892069FDF790FD83
:1028C000A842F3D0384601B0F0BD01F0E7F8064663
:1028D00020692189FDF784FDA842F6D00098371AB7
:1028E000384601B0F0BD0020C743384601B0F0BD06
:1028F000F0B581B000900827204C03E000F040F8CC
:10290000002F33D02189206900252A46FDF76DFD6F
:102910007F1E0098F840C00713D0222000F030F846
:102920002189206901263246FDF75FFD304600F01F
:1029300027F821892069FDF753FD012815D13F2093
:10294000DCE7402000F01CF821892069012632468E
:10295000FDF74BFD304600F013F821892069FDF7A3
:102960003FFD012805D12120C8E70625284601B0F2
:10297000F0BD0625284601B0F0BDC0467C00002011
:102980000B49096809684A6A10184A6A824208D2E3
:102990004A6A824205D24A6A824202D24A6A824224
:1029A000F3D3704780B502490860FEF787FC80BD0D
:1029B0001C03002080B582B00190044801A90122C7
:1029C0000A23FEF717FF019802B080BDA80200207D
:1029D000F0B587B000258D720D720D604D604478A2
:1029E000027894423BD04368002B38D0009003918A
:1029F0000193002007460646069005460292049081
:102A00000595E5B22D0101984259069B9B18039943
:102A100006930B6042190498556876194E60157A32
:102A20002F43059D0F72927A10438872621C0F2407
:102A300014406D1C02998C42E1D1039B009A0298CC
:102A4000507006987F2802DD7F20194606E07F221D
:102A5000D2439042194602DC7E20C0430860486899
:102A60007F2801DD7F2005E07F22D243904202DCF7
:102A70007E20C0434860E8B207B0F0BDF0B581B039
:102A80007F2707400F2F36D81C4CE2193026915D66
:102A9000002930D02146243105460846009200F036
:102AA00082F82046143001F036F8009A905D69B241
:102AB00000290BD401281ED102250B2F17D00A2F75
:102AC00010D0092F16D101F0B3FA12E0022812D16A
:102AD00001250B2F0BD00A2F04D0092F0AD101F0AA
:102AE000C7FA06E01C34204600F0A2FB01E000F02B
:102AF00087F8009A955501B0F0BDC04694000020BB
:102B000070B50478651C07231D404678AE4201D19C
:102B1000012070BD456829550178846862540178A8
:102B2000491C19400170002070BD70B5044608258D
:102B3000284601F01BFD06466060284601F016FDA0
:102B40000021F171B17171713171F170B1707170F9
:102B50003170C171817141710171C17081704170B9
:102B60000170A060218070BD01784078411A484210
:102B70004841704710B543780478A34201D1012041
:102B800010BD4468E35C0B7041788068405C107055
:102B9000002010BD41780278914203D0491C0722E1
:102BA0000A4042707047002101804268D1719171E2
:102BB00051711171D1709170517011708068817074
:102BC000C17041708171C1710171417101707047B3
:102BD00080B502290BD00A460549095C002906D0B8
:102BE000002A01D080200143714800F091F980BD96
:102BF0009E47000880B56E4800F09CF980BDC04635
:102C000010B56B4CA189A0680122FDF7EEFB2046B0
:102C100000F0BBF910BDC046F0B583B0644EB18979
:102C2000B068FDF7DDFB012801D103B0F0BD00F075
:102C300035FF0446B068B189FDF7D2FB0546B068A0
:102C4000B189FDF7CDFBA8424AD100F027FF071B51
:102C50002B48874244D2B189B068FDF7C1FBA84236
:102C6000F3D00B2FE1D3524800F075F90028DCD1E6
:102C70004F4C02A9204600F074F90920C00610212B
:102C8000FDF7AEFB0028D0D0204600F075F90127F3
:102C9000B90301911B483A46FDF7A7FB72B608201D
:102CA000FFF76EFEA189A06800263246FDF79DFB66
:102CB0000F252846FFF764FE02A8007800F026F8EA
:102CC000A189A0683A46FDF790FB2846FFF758FE19
:102CD00062B60C4801993246FDF787FB03B0F0BDA0
:102CE000334C204600F051F98021204600F010F9C5
:102CF00005480178204600F00BF903B0F0BDC0464E
:102D000095110000000800481600002070B5274902
:102D10000D5CEA09264EB189B068FDF766FB0F2409
:102D20002046FFF72DFE6806C20FB068B189FDF797
:102D30005CFB2046FFF724FEA806C20FB068B189ED
:102D4000FDF753FB2046FFF71BFEE806C20FB068F5
:102D5000B189FDF74AFB2046FFF712FE2046FFF738
:102D60000FFE2807C20FB189B068FDF73EFB204671
:102D7000FFF706FE6807C20FB068B189FDF735FBA3
:102D80002046FFF7FDFDA807C20FB068B189FDF727
:102D90002CFB2046FFF7F4FD01222A40B068B189E0
:102DA000FDF723FB2046FFF7EBFD70BD9E480008B2
:102DB00064000020F0B581B0264F39893869FDF7ED
:102DC0000FFB01281BD100F069FE054638693989DF
:102DD000FDF706FB064638693989FDF701FBFF213F
:102DE0000091B04232D11C4C00F058FE401BA04272
:102DF0002CD839893869FDF7F3FAB042F4D00120B4
:102E00000090B87000F04AFE054638693989FDF730
:102E1000E7FA064638693989FDF7E2FAB04213D17C
:102E200000F03CFE441B0C4884420DD839893869B7
:102E3000FDF7D6FAB042F3D0A0087D2801D20420D5
:102E400000900648844201D303200090009801B00E
:102E5000F0BDC0467C000020A8610000D107000042
:102E6000F0B583B00920C0061021FDF7B9FA00289B
:102E700040D0264FF87800283CD0FDF7BFFA3969DA
:102E8000401AFB2806D37B2000F042FA0020F8709D
:102E900003B0F0BDF87800282CD03C461C34204606
:102EA00000F059F8002827D0F878002822D03D46B5
:102EB0002435391D7A1D2846FFF75CFE002819D1FC
:102EC000204600F062F879793879224600F016FD44
:102ED00000280CD102AE2046314600F042F82046D0
:102EE00000F04AF8307800F013FA0020F870284615
:102EF000FFF750FE03B0F0BD01AD2046294600F0BB
:102F000030F8204600F038F82878BDE7940000201B
:102F1000B0B503785C1C072214404578A54201D166
:102F20000120B0BD4468E1540178491C1140017092
:102F30000020B0BD10B50446082001F017FB0021A9
:102F4000C171817141710171C170817041700170F5
:102F50006060218010BD01784078411A48424841A4
:102F60007047427803789A4201D101207047406847
:102F7000805C08700020704741780278914203D04D
:102F8000491C07220A4042707047002101804068B6
:102F9000C171817141710171C170817041700170A5
:102FA00070470000F0B58FB007900125AC02AD4F1F
:102FB00000220C9238462146FDF717FAB426304617
:102FC0000D96FFF7DDFC384621462A462F460A9526
:102FD000FDF70BFA50200990FFF7D2FC04210E9167
:102FE000A04D2846FDF7FCF906908C200B90FFF7CA
:102FF000C7FC284621460C9D2A46FDF7F6F93046C7
:10300000FFF7BEFC974821463A46FDF7EEF9099EC8
:103010003046FFF7B5FC93480E9F3946FDF7E0F9BF
:1030200005900B98FFF7ACFC8E4821462A46FDF729
:10303000DCF90D9D2846FFF7A3FC8A4821460A9A31
:10304000FDF7D3F93046FFF79BFC86483946FDF77C
:10305000C7F904900B9E3046FFF792FC8148074663
:1030600021460C9AFDF7C1F92846FFF789FC38463E
:103070002146254608940A9F3A46FDF7B6F9099C71
:103080002046FFF77DFC77480E99FDF7A9F90390DC
:103090003046FFF775FC734829460C9D2A46FDF71C
:1030A000A4F90D9E3046FFF76BFC6E4808993A462E
:1030B000FDF79BF92046FFF763FC6A4804460E992A
:1030C000FDF78EF902900B9F3846FFF759FC20461A
:1030D000089C21462A46FDF788F93046FFF750FC48
:1030E0006048214626460A9C2246FDF77EF9099D46
:1030F0002846FFF745FC5B480E99FDF771F90190F2
:103100003846FFF73DFCFA48374631460C9E3246BA
:10311000FDF76BF90D98FFF733FCF5483946224669
:10312000FDF763F92846FFF72BFCF1480E9C21467A
:10313000FDF756F900900B9D2846FFF721FCEC485F
:1031400039463246FDF751F90D98FFF719FCE8486A
:1031500039460A9AFDF749F90998FFF711FCE44846
:103160002146FDF73DF904462846FFF709FC06987D
:10317000401E41424141C8010599491E4A424A4107
:10318000910108180499491E4A424A415101081800
:103190000399491E4A424A41110108180299491EE1
:1031A0004A424A41D10008180199491E4A424A41FF
:1031B000910008180099491E4A424A4151000818D6
:1031C000611E4A424A4102430798027030460FB0DE
:1031D000F0BDC046F0B581B00C460646C44DFDF7C3
:1031E0000DF90746FDF70AF9C01B092808D8042184
:1031F0002846FDF7F5F80028F4D0012001B0F0BD15
:103200003046FFF7CFFEFDF7F9F80646FDF7F6F872
:10321000801BA04208D804212846FDF7E1F80128C8
:10322000F4D1002001B0F0BD032001B0F0BDC046D4
:10323000B0B5002101804068C17181714171017197
:10324000C1708170417001700124A102A84D28460F
:103250002246FDF7CAF8042128462246FDF7C5F8A4
:10326000B0BDC04600040048B0B582B0274CA01CD9
:103270004B21C900FFF7AEFF002801D002B0B0BD5E
:10328000A07810382628F9D878440079400087447F
:103290001413131320131B131313131313131313E8
:1032A00013131313131313131313131313131313EE
:1032B0001313131313132B00E0E70120E070FDF745
:1032C0009DF8206102B0B0BD0B2000F021F802B0E3
:1032D000B0BD1C342046FFF73EFE002809D07B20FD
:1032E00000F016F802B0B0BD7D2000F011F802B079
:1032F000B0BD01AD20462946FFF733FE2046FFF75B
:103300003BFE287800F004F802B0B0BD9400002025
:10331000F0B587B0069001229502754E30462946D9
:103320001446FDF762F8FDF769F80746FDF766F801
:10333000C01BC82800D9D6E004213046FDF750F85C
:103340000128F3D1A10300916A482246FDF74DF808
:1033500072B60698C2090746042104913046FDF76B
:1033600044F80022039230462946FDF73EF8A0209B
:103370000590FFF705FB3046294622460294FDF7EB
:1033800034F8AA200190FFF7FBFA7806C20F304606
:10339000049F3946FDF729F830462946039AFDF780
:1033A00024F80598FFF7ECFA304629462246FDF747
:1033B0001CF8019C2046FFF7E3FA06988006C20F2E
:1033C00030463946FDF711F830462946039F3A4604
:1033D000FDF70BF80598FFF7D3FA30462946029A15
:1033E000FDF703F82046FFF7CBFA069CE006C20F74
:1033F00030460499FCF7F9FF304629463A46FCF777
:10340000F4FF059F3846FFF7BBFA30462946029A7B
:10341000FCF7EBFF0198FFF7B3FA2007C20F304625
:103420000499FCF7E2FF30462946039AFCF7DDFFDA
:103430003846FFF7A5FA30462946029AFCF7D5FF31
:10344000019F3846FFF79CFA6007C20F3046049C84
:103450002146FCF7CAFF30462946039AFCF7C5FF10
:103460000598FFF78DFA30462946029AFCF7BDFF12
:103470003846FFF785FA06988007C20F3046214686
:10348000FCF7B3FF30462946039C2246FCF7ADFF0C
:103490000598FFF775FA30462946029F3A46FCF731
:1034A000A4FF0198FFF76CFA069A3A403046049957
:1034B000FCF79BFF304629462246FCF796FF05980D
:1034C000FFF75EFA304629463A46FCF78EFF019830
:1034D000FFF756FA62B6EC4800992246FCF785FFE2
:1034E000204607B0F0BD0324204607B0F0BDC0461B
:1034F00000040048000800489AB0FCF7BFFFFEF740
:1035000099FC0124E104DF4802680A430260026872
:103510000A4013921399610402680A430260026828
:103520000A4013921399A10402680A4302600068DA
:1035300008401390139803200F904503D2480027AA
:1035400029463A46FCF751FF0920C60621020E9192
:10355000083130462246FCF748FFCC48CC49224689
:10356000FCF743FFE103129130463A46FCF73DFF7A
:1035700008211191C5483A46FCF737FF1697159771
:103580001494139513ADC0482946FCF765FE1697B1
:1035900015971120109014902120C00013903046F0
:1035A0002946FCF759FE02200D9015901497B94852
:1035B0001390B6482946FCF74FFE169715971098BA
:1035C0001490B3481390B1482946FCF745FE16976E
:1035D000159714941298139030462946FCF73CFE38
:1035E000169715971094149411981390A74829468C
:1035F000FCF732FEA8480721076247628762C16272
:10360000076347630902A54A84C007604160876079
:10361000C76007610838FDF70DFC002800D0FEE701
:103620009F480C219F4A07624762E1235B028CC0DE
:10363000076047608160C76007610C38FEF77BF860
:10364000002800D0FEE7984887612F25F943109A9B
:103650009207A4C0016047600C38FDF76DFD00289B
:1036600000D0FEE7914C601C13908F4813A9FDF722
:103670003BFE002800D0FEE7199718978A4818A942
:10368000FDF738FD002800D0FEE789488023894AED
:103690008949A2C00260476087600C93C3600C3800
:1036A000FDF74AFD002800D0FEE784488449854A9A
:1036B000A4C0016047608760C7600C38FDF73CFD1F
:1036C000002800D0FEE780480C9981617F49A2C0A4
:1036D0007849016047600C38FDF72EFD002800D0C6
:1036E000FEE77B4D7B4828650F986865AC65EC6507
:1036F0002C4650342046FCF785FE002800D0FEE71B
:1037000062481199109AFCF770FE0F942046FCF75E
:10371000A5FE2A78109C009401976FA073493B4640
:1037200000F01EFE6048FFF73DF92F636F63AF6343
:10373000EF636F486887294630310B910D984872C6
:103740008C71CC7028461C30FFF7F4FB28462430DF
:103750000C90FFF7EAF9284614300A9000F0C1F9FE
:1037600064490F604F608F60CF600F614F618F6160
:10377000CF610F46203748480D96202309933A46DB
:10378000FDF7E8FB5C488481404E8660119981809A
:103790000D990160FFF72EFA30460E9E3146024623
:1037A000099BFEF727FD2003A103384C0D9A0092D8
:1037B000019602940391049412990591069407903E
:1037C0003E493B4A404B0A9800F078FC0B98407AFF
:1037D000012802D100F04CFC01E000F029FC082196
:1037E00000222046FCF701FE2B4E05E02023304648
:1037F00040493A46FDF7AEFB0F98FCF72FFE6A787A
:1038000008212248FCF7F1FD00F048F9E9688842F8
:1038100004D900220D981299FCF7E7FD00F094FC02
:103820003A20285C022811D01098C1021748FCF7F2
:10383000D7FD00280AD0109881021448FCF7D0FD6B
:10384000002803D0FFF710FDFFF70AFB3B20285CA0
:103850000228CBD001210D48FCF7C2FD0028C5D0BD
:10386000FFF7DAF9291D6A1D0C98FFF783F9002884
:10387000BCD169792879FFF7ABF90C98FFF78AF981
:10388000B4E7C04614100240000800480004004895
:1038900024F50000110A000044010020003001401E
:1038A000A80200200038014068020020FF0F00003D
:1038B000E8010020FFFF0000004401402802002032
:1038C0001027000000480140A8010020002000400F
:1038D000940000200030004025730A72657625644C
:1038E000207625642E25642E25640A007046000883
:1038F00002020000F40000206C00002070B50346B6
:1039000044B20420002C00D559E0022900D156E031
:10391000604CE45C002C00D151E0373B352B00D9E2
:1039200063E0C0467B441B795B009F44495E5E6850
:103930005E5E5E5E5E5E5E5E5E5E1A5E1A1A1A1AFB
:103940001A1A1A491A1A1A1A1A5E5E5E5E5E5E5ECC
:103950005E5E5E5E5E1A5E495E5E5E5E1A5E1A1AAC
:103960005E1A1078431C07252B40567800290ED08C
:103970009E4209D0516879230B541178481C284085
:1039800010708B1C2B4056789E4210D116E09E4240
:1039900009D0516879230B541178481C28401070C5
:1039A0008B1C2B4056789E4208D080210C435168D6
:1039B0000C541078401C072101401170002070BD8C
:1039C0001078451C07231D405678002906D0AE42CA
:1039D00027D1AE4231D1AE42E9D1EFE7AE4239D183
:1039E000AE4243D1AE42E0D1E8E71078451C072350
:1039F0002B405578002946D09D42D8D1DEE70029DA
:103A0000DDD02548057801210D406940017010780E
:103A1000431C072119405378002D37D18B42C6D162
:103A2000CCE7516871250D541178481C184010706E
:103A30008D1C1D405678AE42CDD0516879250D546D
:103A40001178481C184010708D1C1D405678AE42ED
:103A5000ADD1B3E75168F1250D541178481C1840D9
:103A600010708D1C1D405678AE42BBD05168792530
:103A70000D541178481C184010708D1C1D4056784C
:103A8000AE4292D19AE79D428FD197E78B428CD17B
:103A900094E7C0461E48000818030020024800684A
:103AA0000068406A7047C0461C030020B0B5037828
:103AB0005C1C0F2214404578A54201D10120B0BD05
:103AC00044681B010D68E550E318CC68DC608C6825
:103AD0009C60496859600178491C114001700020C0
:103AE000B0BD10B5044601200102FCF725FB606063
:103AF0000020208010BD01784078411A484248419A
:103B0000704741780278914201D100207047090145
:103B100040684018704780B500210180406801214D
:103B20000902FCF7FEFA80BDF0B587B0054607092B
:103B30000520002F71D00290A90803231D402846BC
:103B4000084019400491032828D1474C6078474E1B
:103B5000874210D1E07800280DD01E46FCF7C8FA45
:103B60000F21FCF717FB08024049084380B2FEF71B
:103B700043FE33463D4E207887420FD120790028FE
:103B80000CD01C46FCF7B4FA0F21FCF703FB08022B
:103B9000311D014388B2FEF72FFE2346022104980F
:103BA000019148402946594001434C424C412E4A1C
:103BB0000029039310D1507887420DD106AE3046CC
:103BC000FEF708FC284A3088FE210140FE2902D178
:103BD0000005000F5070039B16461078C1B27A1A88
:103BE000504250410440012C0CD105AC2046FEF758
:103BF000F1FB2088FE210140FE2921D10005000FA4
:103C000030701EE004985840284343424341002846
:103C1000029804D17478A74201D107B0F0BD544294
:103C2000544123420198F8D1AB1E5A425A41022D09
:103C30000BD10498032808D18F420398EDD004E0FB
:103C40003078391A4C424C4100220020002AE4D03E
:103C500004990229E1D1002CDFD00548FEF7BAFB18
:103C6000042007B0F0BDC0467C00002001600000C9
:103C700014000020B0B504468078401E082800D902
:103C8000CCE140007844808840008744080034003C
:103C9000C701C701C701C701C7012D00E300E24DFD
:103CA000681C1F21FCF73DFACD20287060786870F1
:103CB000DE4801782971002169710123EB80072218
:103CC000D4016C803024045D002C00D1DFE0022C94
:103CD00002D0012C01D18021297209213124045DF7
:103CE000002C00D0D8E0DFE0A2792179CF48243041
:103CF000FEF706FFB0BDE078002800D18EE1FEF7A8
:103D0000BDFE2079002800D188E1FEF7B7FE60797A
:103D1000002800D182E1FEF7B1FEA079002800D191
:103D20007CE1FEF7ABFEE079002800D176E1FEF7FA
:103D3000A5FE207A002800D170E1FEF79FFE607A90
:103D4000002800D16AE1FEF799FEA07A002800D190
:103D500064E1FEF793FEE07A002800D15EE1FEF711
:103D60008DFE207B002800D158E1FEF787FE607BA6
:103D7000002800D152E1FEF781FEA07B002800D18F
:103D80004CE1FEF77BFEE07B002800D146E1FEF728
:103D900075FE207C002800D140E1FEF76FFE607CBC
:103DA000002800D13AE1FEF769FEA07C002800D18E
:103DB00034E1FEF763FEE07C002800D12EE1FEF73F
:103DC0005DFE207D002800D128E1FEF757FE607DD2
:103DD000002800D122E1FEF751FEA07D002800D18D
:103DE0001CE1FEF74BFEE07D002800D116E1FEF756
:103DF00045FE207E002800D110E1FEF73FFE607EE8
:103E0000002800D10AE1FEF739FEA07E002800D18B
:103E100004E1FEF733FEE07E002800D1FEE0FEF76D
:103E20002DFE207F002800D1F8E0FEF727FE607FFE
:103E3000002800D1F2E0FEF721FEA07F002800D18B
:103E4000ECE0FEF71BFEE07F002800D1E6E0FEF785
:103E500015FEB0BD207961790902081801B27348D6
:103E60000164A179E2791202511809B24164014654
:103E70004031627B0A72A27B8A72E27B4A72227CA8
:103E8000CA72627C0A731430FFF710FEB0BD0821BD
:103E90003124045D002C07D0012C02D0022C01D06B
:103EA00001E081236B54491C3223C35C002B08D0F2
:103EB000012B03D0022B03D1022300E082236B5499
:103EC000491C3323C35C002B08D0012B03D0022BE9
:103ED00003D1032300E083236B54491C3423C35CC8
:103EE000002B08D0012B03D0022B03D1042300E0C8
:103EF00084236B54491C3523C35C002B08D0012B51
:103F000003D0022B03D1052300E085236B54491C09
:103F10003623C35C002B09D0012B03D0022B04D124
:103F2000062300E08623CCB22B55491C3723C35C03
:103F3000002B08D0012B02D0022B01D002E08722F7
:103F4000CBB2EA54491C3822825C002A09D0012AEB
:103F500003D0022A04D1082200E08822CBB2EA541E
:103F6000491C3922825C002A09D0012A03D0022A86
:103F700004D1092200E08922CBB2EA54491C3A223A
:103F8000825C002A09D0012A03D0022A04D10A2225
:103F900000E08A22CBB2EA54491C3B22825C002A10
:103FA00009D0012A03D0022A04D10B2200E08B227F
:103FB000CBB2EA54491C3C22825C002A09D0012A77
:103FC00003D0022A04D10C2200E08C22CBB2EA54A6
:103FD000491C3D22825C002A09D0012A03D0022A12
:103FE00004D10D2200E08D22CBB2EA54491C3E22BE
:103FF000825C002A09D0012A03D0022A04D10E22B1
:1040000000E08E22CBB2EA54491C3F22805C022899
:1040100005D0012802D1C8B28F212954B0BDC8B241
:104020000F212954B0BDC046F400002094000020A8
:10403000B0B5444D002028706869298B01242246C0
:10404000FCF7D3F9298CE8692246FCF7CEF9A98E52
:10405000286B2246FCF7C9F9A98FA86B2246FCF70A
:10406000C4F96103A9482246FCF7BFF9B0BDC046B8
:10407000B0B5344D0024EC62AC842846143004758D
:1040800084736869298B2246FCF7AFF9298CE869AB
:104090002246FCF7AAF9AC642846303004758473D4
:1040A0000482286BA98E2246FCF79FF9A98FA86B82
:1040B0002246FCF79AF901202870B0BDF0B581B016
:1040C000204F0D9CBC870C9CBC630B9CBC860A9C3F
:1040D0003C63099C3C84089CFC61079D3D83069ED3
:1040E0000024FC627960BA60FB6038617E61BC8448
:1040F0003846143004758473304629462246FCF74E
:1041000074F9398CF8692246FCF76FF9BC643846BB
:104110003030047584730482386BB98E2246FCF704
:1041200064F9B98FB86B2246FCF75FF97868FDF740
:10413000D1F8B868FDF7CEF8F868FDF7CBF801B014
:10414000F0BDC04618000020F0B581B0012569021D
:104150006E48FCF745F9002800D1CEE06C4C2046B3
:104160003030C1784A1E534253416A4A13708079F5
:10417000421E53425341684F3B70012901D0012830
:104180001ED1E01DFEF79CFA2072644900260E70D5
:10419000002803D0032813D1FEF714FBE0790009AF
:1041A000607220462430FEF7DFFC00280CD0204649
:1041B0001430FFF7A0FC002811D06681554E1EE098
:1041C000FEF700FB01B0F0BD56480078617A081A8E
:1041D000411E8841A07200284E4E0DD10FE050487C
:1041E0000078617A081A411E8841E072A07A411E67
:1041F00088410028474E02D03078002805D1E07A67
:10420000002805D03878002802D000F095F802E0A8
:104210004548FEF737FBE079FFF786FC207205285A
:1042200043D13978002940D014342046FFF769FC87
:10423000002862D03F4D20462946FEF7C9FB287A68
:1042400041424141C903A87A002800D18031286841
:1042500002B2D31304465C40E31A9BB2042B08D38A
:1042600050103F2800DB3F203E22D243904200DC2A
:1042700010467F2202401143686802B2D3130446FD
:104280005C40E31A9BB2042B08D350103F2800DB9C
:104290003F203E22D243904200DC10464006400CB4
:1042A0000843FEF7A9FA01B0F0BD3178022805D124
:1042B000002903D0FDF7BCFF01B0F0BD032807D1F2
:1042C000002905D01A480088FEF796FA01B0F0BD23
:1042D000042812D1154C601C1F21FBF722FF8120FE
:1042E000A070CD20207012480088410707D4E570E7
:1042F000C10706D0800700D4657101B0F0BDC107C9
:10430000F8D125718007F7D5F7E7C04600040048CB
:1043100094000020800000207F0000207E0000200C
:104320007D0000207C000020A8610000F400002037
:10433000140000203401002010B5084C21892069A8
:104340000022FCF752F84B208000FEF719FB218970
:1043500020690122FCF749F810BDC0467C0000200E
:104360000FB410B503A9044B044A029800F018F8E2
:1043700010BC08BC04B01847B52900080400002090
:1043800002E008C8121F08C1002AFAD1704770471E
:10439000002001E001C1121F002AFBD1704700007C
:1043A000FFB58DB00F460546002606E025280AD049
:1043B000109A0F9990476D1C761C28780028F5D12B
:1043C000304611B0F0BD00240121674A009400E09E
:1043D00004436D1C2B780846203B98401042F7D1CF
:1043E00028782E2815D10420044368786D1C2A28CB
:1043F0000AD101CF6D1C00900BE000990A225143B5
:10440000303940186D1C0090287801463039092950
:10441000F3D92878692843D006DC0028D0D0632857
:104420000BD0642804D13BE073280FD075284CD002
:10443000109A0F999047761C94E038786946087274
:104440000020487202A80190012003E03868019022
:104450000020C0433F1D61070CD5002400E0641C10
:1044600000998C420FDA8442F9DB0199095D002939
:10447000F5D108E0002400E0641C8442FCDB0199D3
:10448000095D0029F8D1361907E0019801990078F3
:10449000491C0191109A0F999047641EF5D261E072
:1044A0000A20019001CF002802DA40422D2102E0CB
:1044B000210504D52B216A461172012103E0E10791
:1044C00001D02021F7E70C9104E00A20019001CFF0
:1044D00000210C910BA90B9108E00199FBF73AFE22
:1044E0000A460B993032491E0B910A700028F4D10C
:1044F0000B9803A9081A20300190600701D5009895
:1045000001E0012000900199884203DD01460198F5
:10451000081A00E000200024009006E002A8109A8B
:10452000005D0F999047641C761C0C988442F5DB63
:1045300004E0109A30200F999047761C0099481E8D
:1045400000900029F5DC08E00B980B990078491CD5
:104550000B91109A0F999047761C0199481E019073
:104560000029F1DC6D1C28E709280100F0B50B30AB
:10457000C108C900144F0026144A0FE003688B429B
:104580000BD38B4205D95C1A4318456830C3083BEE
:1045900000E04368136002C004E0021D10680028B8
:1045A000ECD13046002803D13868002801D0002023
:1045B000F0BD064A06481060064A121AD208D20018
:1045C00044C001203860D7E70C000020080000201C
:1045D0002C0300202805002000000000000000003F
:1045E0000102030406070809000000000102030499
:1045F000B92F01287D22141E661A4617E314AE1245
:10460000D710300FE60DCC0CE10B240B970A0A0AE9
:104610007D091F09C10863080408A6077707190761
:10462000EA06BB065D062E06FF05D005A10572054C
:1046300043051405E404B5048604860457042804DD
:10464000F903F903CA039B039B036C036C033D034B
:104650003D030E030E03DF02DF02B002B00281024F
:1046600081028102520252025202230223022302D9
:104670005553423456432050726F746F636F6C20F1
:10468000436172640A4170706C65204C6973612CDF
:10469000204D61632C20616E64204144420A6465B0
:1046A0006B754E756B656D2032303233000203043A
:1046B00005060708090A0B0C0D0E0F101001020366
:1046C0000405060708090A0B0C0D0E0F1000000068
:1046D00000000000020000000400000001000000D3
:1046E00000010302FF351213141517161A1C191DA9
:1046F0001B1833300C0D0E0F111020221F23211E0A
:10470000243600010203050426282529273238FF14
:10471000060708090B2D2E2B2F2C7B433A31397AB3
:1047200078637660616264656D47FF595B5C4E56E5
:104730005758455354555241FFFF0A676FFFFFFF1B
:10474000FFFFFFFF4C7D4BFF7CFF733E743B3C77CC
:104750003D797275FFFFFFFF7F51FFFFFFFFFFFFF6
:10476000FF37FFFFFFFFFFFFFFFFFFFFFFFFFFFF21
:10477000FFFFFFFFFFFFFFFFFFFFFFFFFFFFFFFF49
:10478000FFFFFFFFFFFFFFFFFFFFFFFFFFFFFFFF39
:10479000FFFFFFFFFFFFFFFFFFFFFF696B710000DF
:1047A00074717273646162635051404145787577EA
:1047B0006065666752535F445657487C70767B69E4
:1047C0006A6B5455595A5B687E42797A6D6C6E6F8C
:1047D000585D5E4C7E227F5C7D0000000000000082
:1047E00000000020002426252128292A2B4D2D2ECB
:1047F000492C0000000000000000000000002F7C99
:10480000270046000027002223002B0000000000A4
:104810000000002300000000000000000000000075
:104820002527292B2F2D3539333B37316761191B4C
:104830001D1F232141453F47433D4975010305079E
:104840000B094D514B534F6571550D0F1113175BEC
:104850005D575F5971056F63730000000000000031
:104860000000000F003337391D2D2F310D27292B64
:10487000250300005500000000000000000019752D
:104880001B006F00001B000D050011000000000060
:1048900000000000000000000000006F6F6FFFF7D5
:1048A000FBF3FDF5F9F1FEF6FAF2FCF4F8F07F7790
:1048B0007B737D7579717E767A727C747870BFB700
:1048C000BBB3BDB5B9B1BEB6BAB2BCB4B8B03F3770
:1048D0003B333D3539313E363A323C343830DFD720
:1048E000DBD3DDD5D9D1DED6DAD2DCD4D8D05F5750
:1048F0005B535D5559515E565A525C5458509F97C0
:104900009B939D9599919E969A929C9498901F172F
:104910001B131D1519111E161A121C141810EFE77F
:10492000EBE3EDE5E9E1EEE6EAE2ECE4E8E06F670F
:104930006B636D6569616E666A626C646860AFA77F
:10494000ABA3ADA5A9A1AEA6AAA2ACA4A8A02F27EF
:104950002B232D2529212E262A222C242820CFC79F
:10496000CBC3CDC5C9C1CEC6CAC2CCC4C8C04F47CF
:104970004B434D4549414E464A424C4448408F873F
:104980008B838D8589818E868A828C8488800F07AF
:104990000B030D0509010E060A020C0408000000B5
:1049A000C0490008000000201800000080430008F3
:1049B000D8490008180000201009000090430008A2
:1049C00000000000000000000000000000000000E7
:0849D00000127A00FFFFAF00A6
:04000005080000C12E
:00000001FF
